:030000000208747F
:0C087400787FE4F6D8FD7581070208804B
:0C088000C288D2A8D2AFC2B4D2B480FEAD
:03000300020800F0
:10080000C0E0C0D0C2B5E590D394E3400575A00028
:100810008057E590D394C7400575A080804BE59044
:10082000D394AA400575A0C0803FE590D3948E4034
:100830000575A0E08033E590D39471400575A0F074
:100840008027E590D39455400575A0F8801BE5906E
:10085000D39438400575A0FC800FE590D3941C40DC
:100860000575A0FE800375A0FFD2B5C2B4D2B4D086
:04087000D0D0E032D2
:00000001FF
