:03000000020D7777
:0C0D7700787FE4F6D8FD758138020DBECF
:100CDD004C4F57004D4944444C4500484947480046
:100CED003D003D3D003D3D3D003D3D3D3D003D3D1B
:100CFD003D3D3D003D3D3D3D3D3D003D3D3D3D3D91
:100D0D003D3D003D3D3D3D3D3D3D3D003D3D3D3D80
:100D1D003D3D3D3D3D003D3D3D3D3D3D3D3D3D3D33
:100D2D00003D3D3D3D3D3D3D3D3D3D3D003D3D3D60
:100D3D003D3D3D3D3D3D3D3D3D0045393431303638
:100D4D00323136003100320046696E616C206578B3
:100D5D00616D2020202020200020202020202046F2
:0A0D6D00696E616C206578616D000D
:100EC50002080000020A0000020C0000020E0000E9
:100ED500111246696E616C206578616D20202020B5
:070EE50020200002100000B4
:10097400758902D2BAD2A9E4F58AF58CC288C28AF2
:10098400D2A8D2AAD2AFFDFC7F38120EF2E4FDFC4D
:100994007F0F120EF2E4FDFC7F06120EF2120EED32
:1009A400E50945086003020ABDE50B450A60030238
:1009B4000ABD120EEEE4FDFC7F80120EF2E580C348
:1009C400945150087BFF7A0C79DD801EE580C39436
:1009D400AB50087BFF7A0C79E1800FAF80C3748041
:1009E400948150097BFF7A0C79E8120E86E4FDFCB1
:1009F4007FC0120EF2E580C3941450097BFF7A0C79
:100A040079ED020AB0E580C3942850097BFF7A0C83
:100A140079EF020AB0E580C3943C50097BFF7A0C5D
:100A240079F2020AB0E580C3945050087BFF7A0C37
:100A340079F68078E580C3947850087BFF7A0C7946
:100A4400FB8069E580C3948C50087BFF7A0D7901A3
:100A5400805AE580C394A050087BFF7A0D79088002
:100A64004BE580C394B450087BFF7A0D7910803C29
:100A7400E580C394C850087BFF7A0D7919802DE571
:100A840080C394DC50087BFF7A0D7923801EE580B7
:100A9400C394F050087BFF7A0D792E800FAF80C38A
:100AA4007480948150097BFF7A0D793A120E867F07
:0B0AB400FF7E3F120F1B0209A480FE12
:03000300020800F0
:10080000C0E0C0F0C083C082C0D075D000C000C0BE
:1008100001C002C003C004C005C006C007E5094509
:1008200008700CFDFC7F08120EF2C2A002094AE516
:100830000964014508600302091BFDFC7F0F120ECD
:10084000F2120EEDE4FDFC7F80120EF27BFF7A0DBA
:100850007947120E86E4FDFC7F40120EF27D017C8A
:1008600000E4FF120EF27D017C007F0E120EF27D7D
:10087000017C007F1F120EF27D017C007F15120E9D
:10088000F27D017C007F0E120EF27D017C007F0E56
:10089000120EF27D017C00E4FF120EF27D017C005D
:1008A000E4FF120EF2E4FDFC7F48120EF27D017CA3
:1008B00000E4FF120EF27D017C007F0A120EF27D31
:1008C000017C007F0A120EF27D017C00E4FF120E13
:1008D000F27D017C007F11120EF27D017C007F0E03
:1008E000120EF27D017C00E4FF120EF27D017C000D
:1008F000E4FF120EF2E4FDFC7FCE120EF27D017CCD
:1009000000E4FF120EF2E4FDFC7FCF120EF27D0137
:100910007C007F01120EF2C2A1802FE5096402451E
:10092000087027C2A2120EEEE4FDFC7F80120EF2C8
:100930007BFF7A0D7951120E86E4FDFC7FC0120E0A
:10094000F27BFF7A0D7953120E860509E5097002D4
:10095000050874FFFFFE120F1BD007D006D005D08C
:1009600004D003D002D001D000D0D0D082D083D028
:04097000F0D0E032B1
:03001300020E03D7
:100E0300C0E0C0F0C083C082C0D075D000C000C0B5
:100E130001C002C003C004C005C006C007E50B45FE
:100E23000A7016120EEEE4FDFC7F80120EF27BFFB9
:100E33007A0D7955120E868020E50B6401450A7000
:100E430006D28CC2A08012E50B6402450A600AE553
:100E53000B6403450A7002C28C050BE50B70020597
:100E63000A74FFFFFE120F1BD007D006D005D00473
:100E7300D003D002D001D000D0D0D082D083D0F024
:030E8300D0E0328A
:03000B00020BEEF7
:100BEE00C0E0C0F0C083C082C0D075D000C000C0CD
:0D0BFE0001C002C003C004C005C006C0074E
:100C0B00050DE50D7002050CF4450C700E050FE596
:100C1B000F7002050E750C00750D00E50F640A458B
:100C2B000E6003020CC2E50B6402450A7027AF216C
:100C3B00F53275330FAE3374112EF8E6FD74122EA8
:100C4B00F8A605E533153370021532E533453270DE
:100C5B00E48F128048E50B6403450A705AD3E51103
:100C6B00940AE51064809480401178127C007D001A
:100C7B007BFF7A0D7966120BB880227532007533C3
:100C8B0000AF3374132FF8E6FE74122FF8A6060587
:100C9B0033E533700205326410453270E4120EED09
:100CAB00E4FDFC7F80120EF27B007A007912120EAB
:070CBB0086750E00750F00A5
:100CC200D007D006D005D004D003D002D001D00086
:0B0CD200D0D0D082D083D0F0D0E03230
:060E86008B348A35893629
:100E8C00E4F537F538AB34AA35A936120F06C3E5AD
:100E9C00389FE5379E5021AB34AA35A93685388268
:100EAC00853783120ABFFF7D017C00120EF20538D4
:080EBC00E53870D1053780CD47
:010EC400220B
:050EED00E4FDFC7F01A3
:100EF2008F90EC4D24FF92B6D2B77F647E00120F22
:040F02001BC2B72235
:0B0F1B00EF1FAC0670011E4C70F622A8
:100D8300020974E493A3F8E493A34003F68001F209
:100D930008DFF48029E493A3F85407240CC8C33371
:100DA300C4540F4420C8834004F456800146F6DF40
:100DB300E4800B0102040810204080900EC5E47EFD
:100DC300019360BCA3FF543F30E509541FFEE49335
:100DD300A360010ECF54C025E060A840B8E493A3FC
:100DE300FAE493A3F8E493A3C8C582C8CAC583CA27
:100DF300F0A3C8C582C8CAC583CADFE9DEE780BEDF
:010EEC000005
:100ABF00BB010CE58229F582E5833AF583E02250EC
:100ACF0006E92582F8E622BBFE06E92582F8E22236
:0D0ADF00E58229F582E5833AF583E4932250
:100AEC00E709F60870FA8046E709F20870FA803ECA
:100AFC0088828C83E709F0A370FA807EE309F608FC
:100B0C0070FA8076E309F20870FA806E88828C8322
:100B1C00E309F0A370FA806289828A83E0A3F60865
:100B2C0070FA805689828A83E0A3F20870FA804AB0
:100B3C0080D280FA80C680D4806580F280318010AB
:100B4C0080A680EA809A80A880DA80E280CA803110
:100B5C0089828A83ECFAE493A3C8C582C8CCC58386
:100B6C00CCF0A3C8C582C8CCC583CC70E9800D89F4
:100B7C00828A83E493A3F60870F9ECFAA9F0EDFBF2
:100B8C002289828A83ECFAE0A3C8C582C8CCC583CB
:100B9C00CCF0A3C8C582C8CCC583CC70EA80DD89F3
:100BAC00828A83E493A3F20870F980CE88F0ED2456
:100BBC0002B4040050C4F582EB2402B4040050BA11
:090BCC002323458223900B3C73A6
:100F0600E4FFFE120BD5600C0FEF70010E09E970BD
:050F1600F20A80EF2249
:100BD500BB010689828A83E0225002E722BBFE021E
:090BE500E32289828A83E4932251
:00000001FF
