:03000000020ABB36
:0C0ABB00787FE4F6D8FD758132020B0252
:100B47004C4F57004D4944444C45004849474800DD
:100B57003D003D3D003D3D3D003D3D3D3D003D3DB2
:100B67003D3D3D003D3D3D3D3D3D003D3D3D3D3D28
:100B77003D3D003D3D3D3D3D3D3D3D003D3D3D3D18
:100B87003D3D3D3D3D003D3D3D3D3D3D3D3D3D3DCB
:100B9700003D3D3D3D3D3D3D3D3D3D3D003D3D3DF8
:100BA7003D3D3D3D3D3D3D3D3D00453934313036D0
:100BB700323136003100320046696E616C2065784B
:090BC700616D2020202020200097
:100D3C0002080000020A0000020C0000110E4669B5
:0F0D4C006E616C206578616D20202020202000D2
:10097000758902D2B9D2A9E4F58AF58CC288C28AF7
:10098000D2A8D2AAD2AFFDFC7F38120D61E4FDFCE3
:100990007F0F120D61E4FDFC7F06120D61120D5CEC
:1009A000E50945086003020AB9E50B450A60030240
:1009B0000AB9120D5DE4FDFC7F80120D61E580C374
:1009C000945150087BFF7A0B7947801EE580C394D1
:1009D000AB50087BFF7A0B794B800FAF80C37480DC
:1009E000948150097BFF7A0B7952120CFDE4FDFCD7
:1009F0007FC0120D61E580C3941450097BFF7A0B10
:100A00007957020AACE580C3942850097BFF7A0B22
:100A10007959020AACE580C3943C50097BFF7A0BFC
:100A2000795C020AACE580C3945050087BFF7A0BD6
:100A300079608078E580C3947850087BFF7A0B79E1
:100A4000658069E580C3948C50087BFF7A0B796BD5
:100A5000805AE580C394A050087BFF7A0B7972809E
:100A60004BE580C394B450087BFF7A0B797A803CC5
:100A7000E580C394C850087BFF7A0B7983802DE50D
:100A800080C394DC50087BFF7A0B798D801EE58053
:100A9000C394F050087BFF7A0B7998800FAF80C326
:100AA0007480948150097BFF7A0B79A4120CFD7F2E
:0B0AB000FF7E3F120D8E0209A080FEA9
:03000300020800F0
:10080000C0E0C0F0C083C082C0D075D000C000C0BE
:1008100001C002C003C004C005C006C007E5094509
:1008200008700CFDFC7F08120D61C2A002094AE5A8
:100830000964014508600302091BFDFC7F0F120DCE
:1008400061120D5CE4FDFC7F80120D617BFF7A0B71
:1008500079B1120CFDE4FDFC7F40120D617D017C3D
:1008600000E4FF120D617D017C007F0E120D617DA1
:10087000017C007F1F120D617D017C007F15120D30
:10088000617D017C007F0E120D617D017C007F0E79
:10089000120D617D017C00E4FF120D617D017C0081
:1008A000E4FF120D61E4FDFC7F48120D617D017CC7
:1008B00000E4FF120D617D017C007F0A120D617D55
:1008C000017C007F0A120D617D017C00E4FF120DA6
:1008D000617D017C007F11120D617D017C007F0E26
:1008E000120D617D017C00E4FF120D617D017C0031
:1008F000E4FF120D61E4FDFC7FCE120D617D017CF1
:1009000000E4FF120D61E4FDFC7FCF120D617D015B
:100910007C007F01120D61C2A1802FE509640245B0
:10092000087027C2A2120D5DE4FDFC7F80120D61EC
:100930007BFF7A0B79BB120CFDE4FDFC7FC0120D2E
:10094000617BFF7A0B79BD120CFD0509E509700288
:100950000508120D8AD007D006D005D004D003D0E8
:1009600002D001D000D0D0D082D083D0F0D0E032FD
:03001300020BD00D
:100BD000C0E0C0F0C083C082C0D075D000C000C0EB
:100BE00001C002C003C004C005C006C007E50B4534
:100BF0000A7016120D5DE4FDFC7F80120D617BFF13
:100C00007A0B79BF120CFD8018E50B6401450A7060
:100C100006D28CC2A0800AE50B6402450A7002C2AB
:100C20008C050BE50B7002050A120D8AD007D00661
:100C3000D005D004D003D002D001D000D0D0D082D3
:070C4000D083D0F0D0E032B8
:03000B00020C479D
:100C4700C0E0C0F0C083C082C0D075D000C000C073
:0D0C570001C002C003C004C005C006C007F4
:100C6400C2A1C2A2120D5CE4FDFC7F80120D617B67
:100C7400007A00790E120CFDAF1D7D0F7C00740DFF
:100C84002DF8E6FE740E2DF8A606ED1D70011CED80
:080C94004C70EB8F0E120D8A6B
:100C9C00D007D006D005D004D003D002D001D000AC
:0B0CAC00D0D0D082D083D0F0D0E03256
:060CFD008B2E8A2F8930C6
:100D0300E4F531F532AB2EAA2FA930120D75C3E5E8
:100D1300329FE5319E5021AB2EAA2FA93085328216
:100D2300853183120CB7FF7D017C00120D61053202
:080D3300E53270D1053180CDDD
:010D3B002295
:050D5C00E4FDFC7F0135
:100D61008F90EC4D24FF92B6D2B77F647E00120DB6
:040D71008EC2B72255
:040D8A0074FFFFFEF5
:0B0D8E00EF1FAC0670011E4C70F62237
:100AC700020970E493A3F8E493A34003F68001F2CC
:100AD70008DFF48029E493A3F85407240CC8C33330
:100AE700C4540F4420C8834004F456800146F6DFFF
:100AF700E4800B0102040810204080900D3CE47E46
:100B0700019360BCA3FF543F30E509541FFEE493F3
:100B1700A360010ECF54C025E060A840B8E493A3BA
:100B2700FAE493A3F8E493A3C8C582C8CAC583CAE5
:100B3700F0A3C8C582C8CAC583CADFE9DEE780BE9D
:010D5B000097
:100CB700BB010CE58229F582E5833AF583E02250F2
:100CC70006E92582F8E622BBFE06E92582F8E2223C
:0D0CD700E58229F582E5833AF583E4932256
:100D7500E4FFFE120CE4600C0FEF70010E09E97040
:050D8500F20A80EF22DC
:100CE400BB010689828A83E0225002E722BBFE020E
:090CF400E32289828A83E4932241
:00000001FF
