:0300000002093CB6
:0C093C00787FE4F6D8FD75811002098375
:1009C8004C4F57004D4944444C450048494748005E
:1009D8003D003D3D003D3D3D003D3D3D3D003D3D33
:1009E8003D3D3D003D3D3D3D3D3D003D3D3D3D3DA9
:1009F8003D3D003D3D3D3D3D3D3D3D003D3D3D3D99
:100A08003D3D3D3D3D003D3D3D3D3D3D3D3D3D3D4B
:100A1800003D3D3D3D3D3D3D3D3D3D3D003D3D3D78
:0A0A28003D3D3D3D3D3D3D3D3D009F
:080B4300020D0000020F00008A
:10080000D288D28AD2A8D2AAD2AFE4FDFC7F381215
:100810000B0FE4120B0BE4FDFC7F06120B0FE4FD43
:10082000FC7F01120B0FE50E450D600302093AFD36
:10083000FC7F01120B0FE4FDFC7F80120B0FE580A3
:10084000C3945150087BFF7A0979C8801EE580C3A4
:1008500094AB50087BFF7A0979CC800FAF80C374CA
:1008600080948150097BFF7A0979D3120ACCE4FD88
:10087000FC7FC0120B0FE580C3941450097BFF7AF4
:100880000979D802092DE580C3942850097BFF7AA5
:100890000979DA02092DE580C3943C50097BFF7A7F
:1008A0000979DD02092DE580C3945050087BFF7A59
:1008B0000979E18078E580C3947850087BFF7A0954
:1008C00079E68069E580C3948C50087BFF7A0979CA
:1008D000EC805AE580C394A050087BFF7A0979F335
:1008E000804BE580C394B450087BFF7A0979FB8084
:1008F0003CE580C394C850087BFF7A0A7904802DB8
:10090000E580C394DC50087BFF7A0A790E801EE5EF
:1009100080C394F050087BFF7A0A7919800FAF806A
:10092000C37480948150097BFF7A0A7925120ACC1E
:0C0930007F007E40120B3802082680FE7B
:03000300020A32BC
:100A3200C0E0C0F0C083C082C0D075D000C000C08A
:100A420001C002C003C004C005C006C007C2A0E5C1
:100A52000E450D7009FDFC7F0B120B0F800BE50E8E
:100A62006401450D7003120B0BD007D006D005D0E0
:100A720004D003D002D001D000D0D0D082D083D015
:040A8200F0D0E0329E
:03000B00020B4C99
:010B4C003276
:060ACC008B088A09890A6B
:100AD200E4F50BF50CAB08AA09A90A120B23C3E52E
:100AE2000C9FE50B9E5021AB08AA09A90A850C822E
:100AF200850B83120A86FF7D017C00120B0F050C09
:080B0200E50C70D1050B80CD5C
:010B0A0022C8
:040B0B00FDFC7F0F5F
:100B0F008F90EC4D24FF92B6D2B77F647E00120B0C
:040B1F0038C2B722FF
:0B0B3800EF1FAC0670011E4C70F6228F
:10094800020800E493A3F8E493A34003F68001F2BD
:1009580008DFF48029E493A3F85407240CC8C333B0
:10096800C4540F4420C8834004F456800146F6DF7F
:10097800E4800B0102040810204080900B43E47EC1
:10098800019360BCA3FF543F30E509541FFEE49374
:10099800A360010ECF54C025E060A840B8E493A33B
:1009A800FAE493A3F8E493A3C8C582C8CAC583CA66
:1009B800F0A3C8C582C8CAC583CADFE9DEE780BE1E
:010B4B0000A9
:100A8600BB010CE58229F582E5833AF583E0225025
:100A960006E92582F8E622BBFE06E92582F8E2226F
:0D0AA600E58229F582E5833AF583E4932289
:100B2300E4FFFE120AB3600C0FEF70010E09E970C7
:050B3300F20A80EF2230
:100AB300BB010689828A83E0225002E722BBFE0241
:090AC300E32289828A83E4932274
:00000001FF
