:03000000020AB041
:0C0AB000787FE4F6D8FD75811A020AF781
:100B3C004C4F57004D4944444C45004849474800E8
:100B4C003D003D3D003D3D3D003D3D3D3D003D3DBD
:100B5C003D3D3D003D3D3D3D3D3D003D3D3D3D3D33
:100B6C003D3D003D3D3D3D3D3D3D3D003D3D3D3D23
:100B7C003D3D3D3D3D003D3D3D3D3D3D3D3D3D3DD6
:100B8C00003D3D3D3D3D3D3D3D3D3D3D003D3D3D03
:100B9C003D3D3D3D3D3D3D3D3D00453934313036DB
:100BAC00323136003100320046696E616C20657856
:090BBC00616D20202020202000A2
:080CF3000217000002190000C5
:10097F00758902C288C28AD2A8D2AAD2B9D2AFE4EC
:10098F00FDFC7F38120CBBE4FDFC7F0F120CBBE4A7
:10099F00FDFC7F06120CBB120CB6120CB6E4FDFC6C
:1009AF007F80120CBBE580C3945150087BFF7A0BFC
:1009BF00793C801EE580C394AB50087BFF7A0B799E
:1009CF0040800FAF80C37480948150097BFF7A0BF6
:1009DF007947120C77E4FDFC7FC0120CBBE580C396
:1009EF00941450097BFF7A0B794C020AA3E580C35C
:1009FF00942850097BFF7A0B794E020AA3E580C336
:100A0F00943C50097BFF7A0B7951020AA3E580C30E
:100A1F00945050087BFF7A0B79558078E580C3940A
:100A2F007850087BFF7A0B795A8069E580C3948CE4
:100A3F0050087BFF7A0B7960805AE580C394A050F1
:100A4F00087BFF7A0B7967804BE580C394B450081D
:100A5F007BFF7A0B796F803CE580C394C850087B8D
:100A6F00FF7A0B7978802DE580C394DC50087BFFEB
:100A7F007A0B7982801EE580C394F050087BFF7A51
:100A8F000B798D800FAF80C37480948150097BFFE9
:100A9F007A0B7999120C777FFF7E3F120CE80209CF
:010AAF00A99D
:03000300020800F0
:10080000C0E0C0F0C083C082C0D075D000C000C0BE
:1008100001C002C003C004C005C006C007E51845FA
:1008200017700CFDFC7F08120CBBC2A0020959E531
:100830001864014517600302091BFDFC7F0F120CB1
:10084000BB120CB6E4FDFC7F80120CBB7BFF7A0B65
:1008500079A6120C77E4FDFC7F40120CBB7D017C75
:1008600000E4FF120CBB7D017C007F0E120CBB7DEF
:10087000017C007F1F120CBB7D017C007F15120CD8
:10088000BB7D017C007F0E120CBB7D017C007F0EC6
:10089000120CBB7D017C00E4FF120CBB7D017C00CF
:1008A000E4FF120CBBE4FDFC7F48120CBB7D017C15
:1008B00000E4FF120CBB7D017C007F0A120CBB7DA3
:1008C000017C007F0A120CBB7D017C00E4FF120C4E
:1008D000BB7D017C007F11120CBB7D017C007F0E73
:1008E000120CBB7D017C00E4FF120CBB7D017C007F
:1008F000E4FF120CBBE4FDFC7FCE120CBB7D017C3F
:1009000000E4FF120CBBE4FDFC7FCF120CBB7D01A9
:100910007C007F01120CBBC2A1802FE51864024548
:10092000177036C2A2120CB7E4FDFC7F80120CBB1C
:100930007BFF7A0B79B0120C77E4FDFC7FC0120CC0
:10094000BB7BFF7A0B79B2120C77120CE4120CE429
:10095000120CE4120CE4120CE40518E51870020500
:1009600017120CE4D007D006D005D004D003D00273
:0F097000D001D000D0D0D082D083D0F0D0E032F0
:03001300020BC518
:100BC500C0E0C0F0C083C082C0D075D000C000C0F6
:100BD50001C002C003C004C005C006C007E51A4530
:100BE500197023120CB7E4FDFC7F80120CBB7BFF50
:100BF5007A0B79B4120C77120CE4120CE4120CE4A3
:100C0500120CE4120CE4051AE51A70020519120C0F
:100C1500E4D007D006D005D004D003D002D001D04F
:0C0C250000D0D0D082D083D0F0D0E032DC
:03000B00020CFCE8
:010CFC0032C5
:060C77008B128A138914A0
:100C7D00E4F515F516AB12AA13A914120CCFC3E5A2
:100C8D00169FE5159E5021AB12AA13A91485168245
:100C9D00851583120C31FF7D017C00120CBB0516EE
:080CAD00E51670D1051580CD9C
:010CB500221C
:050CB600E4FDFC7F01DC
:100CBB008F90EC4D24FF92B6D2B77F647E00120C5E
:040CCB00E8C2B722A2
:040CE40074FFFFFE9C
:0B0CE800EF1FAC0670011E4C70F622DE
:100ABC0002097FE493A3F8E493A34003F68001F2C8
:100ACC0008DFF48029E493A3F85407240CC8C3333B
:100ADC00C4540F4420C8834004F456800146F6DF0A
:100AEC00E4800B0102040810204080900CF3E47E9B
:100AFC00019360BCA3FF543F30E509541FFEE493FF
:100B0C00A360010ECF54C025E060A840B8E493A3C5
:100B1C00FAE493A3F8E493A3C8C582C8CAC583CAF0
:100B2C00F0A3C8C582C8CAC583CADFE9DEE780BEA8
:010CFB0000F8
:100C3100BB010CE58229F582E5833AF583E0225078
:100C410006E92582F8E622BBFE06E92582F8E222C2
:0D0C5100E58229F582E5833AF583E49322DC
:100CCF00E4FFFE120C5E600C0FEF70010E09E9706D
:050CDF00F20A80EF2283
:100C5E00BB010689828A83E0225002E722BBFE0294
:090C6E00E32289828A83E49322C7
:00000001FF
