:03000000020B43AD
:0C0B4300787FE4F6D8FD758132020B8A41
:100BCF004C4F57004D4944444C4500484947480055
:100BDF003D003D3D003D3D3D003D3D3D3D003D3D2A
:100BEF003D3D3D003D3D3D3D3D3D003D3D3D3D3DA0
:100BFF003D3D003D3D3D3D3D3D3D3D003D3D3D3D90
:100C0F003D3D3D3D3D003D3D3D3D3D3D3D3D3D3D42
:100C1F00003D3D3D3D3D3D3D3D3D3D3D003D3D3D6F
:100C2F003D3D3D3D3D3D3D3D3D0045393431303647
:100C3F00323136003100320046696E616C206578C2
:090C4F00616D202020202020000E
:100D770002080000020A0000020C0000110E46697A
:0F0D87006E616C206578616D2020202020200097
:10097F00758902D2B9E4F58AF58CC288C28AD2A8E9
:10098F00D2AAD2AFFDFC7F38120D9CE4FDFC7F0F85
:10099F00120D9CE4FDFC7F06120D9C120D97120D9B
:1009AF0097E4FDFC7F80120D9CE580C394515008A5
:1009BF007BFF7A0B79CF801EE580C394AB50087B09
:1009CF00FF7A0B79D3800FAF80C374809481500965
:1009DF007BFF7A0B79DA120D38E4FDFC7FC0120D24
:1009EF009CE580C3941450097BFF7A0B79DF020AD0
:1009FF00A7E580C3942850097BFF7A0B79E1020A9F
:100A0F00A7E580C3943C50097BFF7A0B79E4020A77
:100A1F00A7E580C3945050087BFF7A0B79E8807864
:100A2F00E580C3947850087BFF7A0B79ED8069E5F8
:100A3F0080C3948C50087BFF7A0B79F3805AE58042
:100A4F00C394A050087BFF7A0B79FA804BE580C3E3
:100A5F0094B450087BFF7A0C7902803CE580C394F4
:100A6F00C850087BFF7A0C790B802DE580C394DC8E
:100A7F0050087BFF7A0C7915801EE580C394F050E7
:100A8F00087BFF7A0C7920800FAF80C3748094812C
:100A9F0050097BFF7A0C792C120D387FFF7E3F12A5
:050AAF000DC90209ADB4
:03000300020800F0
:10080000C0E0C0F0C083C082C0D075D000C000C0BE
:1008100001C002C003C004C005C006C007E5094509
:1008200008700CFDFC7F08120D9CC2A0020959E55E
:100830000964014508600302091BFDFC7F0F120DCE
:100840009C120D97E4FDFC7F80120D9C7BFF7A0CBF
:100850007939120D38E4FDFC7F40120D9C7D017C3E
:1008600000E4FF120D9C7D017C007F0E120D9C7D2B
:10087000017C007F1F120D9C7D017C007F15120DF5
:100880009C7D017C007F0E120D9C7D017C007F0E03
:10089000120D9C7D017C00E4FF120D9C7D017C000B
:1008A000E4FF120D9CE4FDFC7F48120D9C7D017C51
:1008B00000E4FF120D9C7D017C007F0A120D9C7DDF
:1008C000017C007F0A120D9C7D017C00E4FF120D6B
:1008D0009C7D017C007F11120D9C7D017C007F0EB0
:1008E000120D9C7D017C00E4FF120D9C7D017C00BB
:1008F000E4FF120D9CE4FDFC7FCE120D9C7D017C7B
:1009000000E4FF120D9CE4FDFC7FCF120D9C7D01E5
:100910007C007F01120D9CC2A1802FE50964024575
:10092000087036C2A2120D98E4FDFC7F80120D9C67
:100930007BFF7A0C7943120D38E4FDFC7FC0120D69
:100940009C7BFF7A0C7945120D38120DC5120DC52E
:10095000120DC5120DC5120DC50509E50970020578
:1009600008120DC5D007D006D005D004D003D002A0
:0F097000D001D000D0D0D082D083D0F0D0E032F0
:03001300020C5884
:100C5800C0E0C0F0C083C082C0D075D000C000C062
:100C680001C002C003C004C005C006C007E50B45AB
:100C78000A7025120D98E4FDFC7F80120D9C7BFF05
:100C88007A0C7947120D38120DC5120DC5120DC513
:100C9800120DC5120DC58016E50B6401450A7004D6
:100CA800D28C800AE50B6402450A7002C28C050BDF
:100CB800E50B7002050A120DC5D007D006D005D085
:100CC80004D003D002D001D000D0D0D082D083D0BD
:040CD800F0D0E03246
:03000B00020AB432
:100AB400C0E0C0F0C083C082C0D075D000C000C008
:0D0AC40001C002C003C004C005C006C00789
:100AD100900000050DE50D7002050CAE0CFFEE3324
:100AE10095E0FDFCE47BFF7AFFF9F8C3120D097074
:100AF10036FB7A00790E120D38AF1D90000FAE82D1
:100B0100740D2EF8E6FEAD82740E2DF8A606E58270
:100B1100158270021583E582458370E28F0E750C94
:070B210000750D00120DC567
:100B2800D007D006D005D004D003D002D001D00021
:0B0B3800D0D0D082D083D0F0D0E032CB
:060D38008B2E8A2F89308A
:100D3E00E4F531F532AB2EAA2FA930120DB0C3E572
:100D4E00329FE5319E5021AB2EAA2FA930853282DB
:100D5E00853183120CDCFF7D017C00120D9C053267
:080D6E00E53270D1053180CDA2
:010D7600225A
:050D9700E4FDFC7F01FA
:100D9C008F90EC4D24FF92B6D2B77F647E00120D7B
:040DAC00C9C2B722DF
:040DC50074FFFFFEBA
:0B0DC900EF1FAC0670011E4C70F622FC
:100B4F0002097FE493A3F8E493A34003F68001F234
:100B5F0008DFF48029E493A3F85407240CC8C333A7
:100B6F00C4540F4420C8834004F456800146F6DF76
:100B7F00E4800B0102040810204080900D77E47E82
:100B8F00019360BCA3FF543F30E509541FFEE4936B
:100B9F00A360010ECF54C025E060A840B8E493A332
:100BAF00FAE493A3F8E493A3C8C582C8CAC583CA5D
:100BBF00F0A3C8C582C8CAC583CADFE9DEE780BE15
:010D9600005C
:100CDC00BB010CE58229F582E5833AF583E02250CD
:100CEC0006E92582F8E622BBFE06E92582F8E22217
:0D0CFC00E58229F582E5833AF583E4932231
:100D0900EB9FF5F0EA9E42F0E99D42F0EC6480C861
:060D190064809845F02201
:100DB000E4FFFE120D1F600C0FEF70010E09E970C9
:050DC000F20A80EF22A1
:100D1F00BB010689828A83E0225002E722BBFE02D2
:090D2F00E32289828A83E4932205
:00000001FF
