:03000000020800F3
:0C080000787FE4F6D8FD758120020847DF
:1009B400453934313036323136000D0A436F7272A4
:1009C4006563740D0A000D0A57726F6E670D0A0095
:1009D400C101C1800108000317FF09B4031AFF090C
:0A09E400BE0312FF09CA021500004D
:0F0A0800759850758920758DE6D28E75A890224D
:030023000208F4DC
:1008F400C0E0C0F0C083C082C0D075D000C000C0CA
:1009040001C002C003C004C005C006C00730982758
:10091400C298AF08050874092FF8A6997408250829
:10092400F8E6F5A0E50875F00912088C85F008E5ED
:10093400087008D2018004C299D200D007D006D032
:1009440005D004D003D002D001D000D0D0D082D0C2
:0609540083D0F0D0E03278
:1009EF001208AE60133000FDC2001208AEF5997404
:0909FF000129F9E43AFA80E8222A
:10095A00E4F515F516AB17AA18A919851682851597
:10096A00831208C7FF74092516F8E66F6004E4FECF
:10097A00FF220516E516700205156409451570D59E
:05098A007E007F012248
:10098F00120A083001FDC20112095AEF4E600BAB7B
:10099F001AAA1BA91C1209EF80E9AB12AA13A914FA
:0509AF001209EF80DEDB
:10080C0002098FE493A3F8E493A34003F68001F26A
:10081C0008DFF48029E493A3F85407240CC8C333ED
:10082C00C4540F4420C8834004F456800146F6DFBC
:10083C00E4800B01020408102040809009D4E47E6F
:10084C00019360BCA3FF543F30E509541FFEE493B1
:10085C00A360010ECF54C025E060A840B8E493A378
:10086C00FAE493A3F8E493A3C8C582C8CAC583CAA3
:10087C00F0A3C8C582C8CAC583CADFE9DEE780BE5B
:0109EE000008
:10088C00C2D530F707B2D563F0FF05F030E70CB2F4
:10089C00D5F4048463F0FF05F080018430D502F4B4
:0208AC00042224
:1008AE00BB010689828A83E0225002E722BBFE0248
:0908BE00E32289828A83E493227B
:1008C700BB010CE58229F582E5833AF583E02250E6
:1008D70006E92582F8E622BBFE06E92582F8E22230
:0D08E700E58229F582E5833AF583E493224A
:00000001FF
