:03000000020C39B6
:0C0C3900787FE4F6D8FD75815D020C8028
:100DBB004539343130363231360046696E616C203C
:0F0DCB006578616D003100320025003D003E006B
:100D8000020D0000020F0000021300000216000016
:100D9000021A000002460000182E49206C6F76658A
:100DA00020656D6265646465642073797374656D34
:0A0DB0002E0002480000020B0000B4
:10080000758922D2BAD2A9D2ABE4F58AF58CF58BE0
:10081000F58DC288C28AC2A8D2AAD2AFFDFC7F38A9
:10082000120DDFE4FDFC7F08120DDF120E08120E20
:1008300008120E08E4FDFC7F0F120DDFE4FDFC7FC3
:1008400006120DDF020967E580C394785013C28E4B
:10085000C2A0D2A1D2A220B204D28C80EAC28C80E3
:10086000E6E580C394B4400302096DD2A0C2A1D2D0
:10087000A2C28CC28EE4FDFC7F0F120DDF120DDAD6
:10088000E4FDFC7F80120DDF7BFF7A0D79BB120D3A
:1008900041E4FDFC7F40120DDF7D017C00E4FF128E
:1008A0000DDF7D017C007F0E120DDF7D017C007F5E
:1008B0001F120DDF7D017C007F15120DDF7D017C95
:1008C000007F0E120DDF7D017C007F0E120DDF7D9B
:1008D000017C00E4FF120DDF7D017C00E4FF120DBE
:1008E000DFE4FDFC7F48120DDF7D017C00E4FF1298
:1008F0000DDF7D017C007F0A120DDF7D017C007F12
:100900000A120DDF7D017C00E4FF120DDF7D017C0A
:10091000007F11120DDF7D017C007F0E120DDF7D47
:10092000017C00E4FF120DDF7D017C00E4FF120D6D
:10093000DFE4FDFC7F8E120DDF7D017C00E4FF1201
:100940000DDFE4FDFC7F8F120DDF7D017C007F0158
:10095000120DDFE4FDFC7FC0120DDF7BFF7A0D7905
:10096000C5120D41120E08120DDA020847AF80C3FE
:10097000748094814003020847D2A0D2A1C2A2C2CF
:060980008CD28E02084734
:03001300020CC517
:100CC500C0E0C0F0C083C082C0D075D000C000C0F5
:100CD50001C002C003C004C005C006C007E580C34B
:100CE5009478403DE58094B45037120DDAE4FDFC6C
:100CF5007F80120DDF7BFF7A0D79D0120D41E4FD67
:100D0500FC7FC0120DDF7BFF7A0D79D2120D4112E7
:100D15000E08120E08120E08120E08120E08120EF8
:100D250008D007D006D005D004D003D002D001D01A
:0C0D350000D0D0D082D083D0F0D0E032CB
:03000B0002098661
:10098600C0E0C0F0C083C082C0D075D000C000C037
:1009960001C002C003C004C005C006C007050EE5BD
:1009A6000E7002050DAE1AAF1B7C007D64120AD8CC
:1009B6008E2C8F2DAE1AAF1B7C007D0A120AD87CB6
:1009C600007D0A120AD88C188D19AE1AAF1B7C004E
:1009D6007D0A120AD88C118D12E52D2430F508E512
:1009E600192430F509E5122430F50AE50EF4450D13
:1009F600700E0510E5107002050F750D00750E00DE
:100A0600E510640A450F6003020A90C3E51B94646F
:100A1600E51A64809480500B7405251BF51BE4359C
:100A26001AF51A750F00751000120DDAE4FDFC7F39
:100A360080120DDF7B007A007908120D417BFF7A68
:100A46000D79D4120D41E4FDFC7FC0120DDF754611
:100A560000754700AE1AAF1B7C007D0A120AD8C388
:100A6600E5479FEE6480F8E54664809850137BFF67
:100A76007A0D79D6120D410547E547700205468085
:100A8600D37BFF7A0D79D8120D41D007D006D00559
:100A9600D004D003D002D001D000D0D0D082D083F1
:050AA600D0F0D0E032A9
:03001B00020B7C59
:100B7C00C0E0C0F0C083C082C0D075D000C000C03F
:100B8C0001C002C003C004C005C006C0070514E5BF
:100B9C001470020513F44513700E0517E517700257
:100BAC000516751300751400E517640A4516706276
:100BBC00852E15F548F549AF49742F2FF8E6FE74CC
:100BCC002E2FF8A6060549E549700205486416451E
:100BDC004870E4851544120DDAE4FDFC7F80120D9B
:100BEC00DF750B00750C00AF0C742E2FF8E6FE743D
:100BFC001C2FF8A606050CE50C7002050B641045BD
:100C0C000B70E47B007A00791C120D41751600758F
:100C1C001700D007D006D005D004D003D002D001E5
:0D0C2C00D000D0D0D082D083D0F0D0E03204
:060D41008B598A5A895B00
:100D4700E4F55CF55DAB59AA5AA95B120DF3C3E54F
:100D57005D9FE55C9E5021AB59AA5AA95B855D82D0
:100D6700855C83120AABFF7D017C00120DDF055DF8
:080D7700E55D70D1055C80CD43
:010D7F002251
:050DDA00E4FDFC7F01B7
:100DDF008F90EC4D24FF92B6D2B77F647E00120E37
:040DEF000CC2B72259
:040E080074FFFFFE76
:0B0E0C00EF1FAC0670011E4C70F622B8
:100C4500020800E493A3F8E493A34003F68001F2BD
:100C550008DFF48029E493A3F85407240CC8C333B0
:100C6500C4540F4420C8834004F456800146F6DF7F
:100C7500E4800B0102040810204080900D80E47E82
:100C8500019360BCA3FF543F30E509541FFEE49374
:100C9500A360010ECF54C025E060A840B8E493A33B
:100CA500FAE493A3F8E493A3C8C582C8CAC583CA66
:100CB500F0A3C8C582C8CAC583CADFE9DEE780BE1E
:010DBA000038
:100AAB00BB010CE58229F582E5833AF583E0225000
:100ABB0006E92582F8E622BBFE06E92582F8E2224A
:0D0ACB00E58229F582E5833AF583E4932264
:100AD800C2D5EC30E709B2D5E4C39DFDE49CFCEE39
:100AE80030E715B2D5E4C39FFFE49EFE120B27C37F
:100AF800E49DFDE49CFC8003120B2730D507C3E47A
:060B08009FFFE49EFE22A7
:100DF300E4FFFE120B0E600C0FEF70010E09E97099
:050E0300F20A80EF225D
:100B0E00BB010689828A83E0225002E722BBFE02E5
:090B1E00E32289828A83E4932218
:100B2700BC000BBE0029EF8DF084FFADF022E4CCB2
:100B3700F875F008EF2FFFEE33FEEC33FCEE9DEC7B
:100B4700984005FCEE9DFE0FD5F0E9E4CEFD22EDC1
:100B5700F8F5F0EE8420D21CFEADF075F008EF2F0B
:100B6700FFED33FD4007985006D5F0F222C398FDFC
:050B77000FD5F0EA2299
:00000001FF
