:100000009000977D02780179047AF7EAF5A030A78D
:10001000120830A60E0830A50A0830A41403FAD935
:10002000EA80E21181E8DD03FE80DA1181F5F080DB
:10003000D430A30930A21B30A12230A033EE25F02A
:1000400075F00A8493F590118AE5F093F5907D029E
:1000500080B3EE95F093F5907D0280A9EEA475F043
:100060000A8493F590118AE5F093F5907D028095CE
:10007000EE8493F590118AE5F093F5907D020200ED
:10008000057C327BFADBFEDCFA227CFA7BFADBFEB3
:100090007BFADBFEDCF622039F250D9949411B010B
:0100A0000956
:00000001FF
