:100000009000967E09780079037AF7EAF5A030A788
:100010000F0830A60B0830A5070803FAD9ED80E5D4
:10002000BE0904E8FE80E4E8FF75A0EF30A30B30C2
:10003000A21630A12130A03880EF1188EE8FF02574
:10004000F093F5907E0980BD1188EE8FF095F093C6
:10005000F5907E0980AF1188EE8FF0A475F00A84C8
:10006000FEE5F093F5901191EE93F5907E09809561
:100070001188EE8FF08493F5901191E5F0937590CF
:1000800000F5907E090200057C327BFADBFEDCFA8B
:0F009000227D0ADDF5229F250D9949411B0109AB
:00000001FF
