:1000000090009B7D02780179047AF7EAF5A030A789
:10001000120830A60E0830A50A0830A41403FAD935
:10002000EA80E21185E8DD03FE80DA1185F5F080D3
:10003000D430A30930A21D30A12430A037EE25F022
:1000400075F00A8493F590118EE5F093F590118E7A
:100050007D0280B1EE95F093F5907D0280A7EEA42D
:1000600075F00A8493F590118EE5F093F590118E5A
:100070007D028091EE8493F590118EE5F093F590DA
:100080007D020200057C327BFADBFEDCFA227CFA80
:100090007BFADBFE7BFADBFEDCF622039F250D9963
:0500A00049411B0109AC
:00000001FF
