:10000000900095780079037AF7EAF5A030A70F08F9
:1000100030A60B0830A5070803FAD9ED80E5E8FE05
:10002000780079037AF7EAF5A030A70F0830A60B1D
:100030000830A5070803FAD9ED80E5E8FF75A0EFC1
:1000400030A30B30A21430A11D30A02580EF118702
:10005000EE8FF025F093F59080A91187EE8FF09543
:10006000F093F590809D1187EE8FF0A493F590802A
:10007000921187EE8FF08493F5901190E5F09375CF
:100080009000F5900200037C327BFADBFEDCFA2262
:0E0090007D0ADDF5229F250D9949411B0109CE
:00000001FF
