:030000000208EC07
:0C08EC00787FE4F6D8FD75810C020885C9
:0E08DE0048656C6C6F2C20776F726C64210083
:100885007F381208B27F0F1208B2E4FDFC7F061212
:1008950008B5E4FDFC7F011208B5E4FDFC7F80127C
:0D08A50008B57BFF7A0879DE12084680FE58
:060846008B088A09890AF3
:10084C00E4F50BF50CAB08AA09A90A1208C9C3E513
:10085C000C9FE50B9E5021AB08AA09A90A850C82B6
:10086C00850B83120800FF7D017C001208B5050C76
:08087C00E50C70D1050B80CDE5
:010884002251
:0308B200E4FDFC66
:1008B5008F90EC4D24FF92B0D2B17F647E00120878
:0408C500F8C2B122A2
:0B08F800EF1FAC0670011E4C70F622D2
:10080000BB010CE58229F582E5833AF583E02250AD
:1008100006E92582F8E622BBFE06E92582F8E222F7
:0D082000E58229F582E5833AF583E4932211
:1008C900E4FFFE12082D600C0FEF70010E09E970AC
:0508D900F20A80EF228D
:10082D00BB010689828A83E0225002E722BBFE02C9
:09083D00E32289828A83E49322FC
:00000001FF
