:0300000002090CE6
:0C090C00787FE4F6D8FD75810A0208002F
:0A09230045393431303632313600E8
:100800007F381208F57F0F1208F5E4FDFC7F061211
:1008100008F8E4FDFC7F011208F8E4FDFC7F80127B
:1008200008F87BFF7A0979231208B5E4FDFC7F40C4
:100830001208F87D017C007F0A1208F8E4FDFC7FB5
:10084000411208F87D017C007F0A1208F8E4FDFCE3
:100850007F421208F87D017C007F1F1208F8E4FD3A
:10086000FC7F431208F87D017C007F151208F8E434
:10087000FDFC7F441208F87D017C007F1B1208F804
:10088000E4FDFC7F451208F87D017C007F1F120803
:10089000F8E4FDFC7F461208F87D017C00E4FF12BD
:1008A00008F8E4FDFC7FC01208F87D017C00E4FF3D
:0508B0001208F880FEB3
:1008B5008B088A09890AAB08AA09A90A1208DCFF6C
:1008C50060147D017C001208F87401250AF50AE41C
:0708D5003509F50980E0225E
:0308F500E4FDFC23
:1008F8008F90EC4D24FF92B0D2B17F647E00120934
:0409080018C2B1223E
:0B091800EF1FAC0670011E4C70F622B1
:1008DC00BB010689828A83E0225002E722BBFE021A
:0908EC00E32289828A83E493224D
:00000001FF
