:02000000802E50
:02000300215E7C
:1000300075A881758131D288D2D3780079007A0091
:10004000C2D3D200C2D3780079047AF7D2B3EAF5EA
:10005000A030B36B30A7150830A6110830A50D08E5
:1000600030A4090803FAD9E4313580D83128900149
:1000700086E893B40A028039B40B028034B40C02CF
:10008000802FB40D02802AB40E028007B40F0280C4
:100090000C803BD2D3780079007A0080CBD2D3D0C9
:1000A0000ED00DD00C3106C00B780079007A00809C
:1000B000B7D2D3C0E0C200780079007A0080A931BD
:1000C00028D2D3E581B43132D00B316E809AD2D3AD
:1000D000FFE9F8EAF9EFFAE875F064A4FBE975F0D6
:1000E0000AA48BF025F08AF025F0FB300006E581AC
:1000F0009401F581C00BD2000168D00ED00DD00C58
:100100003106C00B0168EC8EF0BD0A0625F0FB310C
:100110006E22BD0B0695F0FB316E22BD0C05A4FBD3
:10012000316E2284FB316E227D037EC87FFADFFEB2
:10013000DEFADDF622900196D2D3C2B5E893F590AF
:0A0140003159D2B5C2B6E993F5902B
:10014A003159D2B6C2B7EA93F5903159D2B7227F64
:10015A00A4DFFE22D2D3316E7D0A317DDBF8316E07
:10016A00317D80FCEB75F00A84AAF075F00A84A947
:10017A00F0F8227E643135DEFCDDF8220102030A42
:10018A000405060B0708090C0E000F0D039F250D29
:06019A009949411B011907
:00000001FF
