:02000000802E50
:0200030021607A
:10003000D2B275A881758131D288D2D37800790087
:100040007A00C2D3D200C2D3780079047AF7D2B34F
:10005000EAF5A030B36B30A7150830A6110830A51B
:100060000D0830A4090803FAD9E4313780D8312AC1
:10007000900187E893B40A028039B40B028034B44B
:100080000C02802FB40D02802AB40E028007B40F38
:1000900002800C803BD2D3780079007A0080CBD2EA
:1000A000D3D00ED00DD00C3108C00B780079007A77
:1000B0000080B7D2D3C0E0C200780079007A008017
:1000C000A9312AD2D3E581B43132D00B316F809A75
:1000D000D2D3FFE9F8EAF9EFFAE875F064A4FBE996
:1000E00075F00AA48BF025F08AF025F0FB300006AD
:1000F000E5819401F581C00BD200016AD00ED00DCC
:10010000D00C3108C00B016AEC8EF0BD0A0625F058
:10011000FB316F22BD0B0695F0FB316F22BD0C0544
:10012000A4FB316F2284FB316F227D037EC87FFAEE
:10013000DFFEDEFADDF622900197D2D3C2B5E89356
:0A014000F590315BD2B5C2B6E99329
:10014A00F590315BD2B6C2B7EA93F590315BD2B77C
:10015A00227FA4DFFE22D2D3D2B2316F7D0A317E52
:10016A00DBF8316F32EB75F00A84AAF075F00A8475
:10017A00A9F0F8227E643137DEFCDDF822010203A1
:10018A000A0405060B0708090C0E000F0D039F252C
:07019A000D9949411B0119F9
:00000001FF
