:03000000020917DB
:0C091700787FE4F6D8FD75810D02080021
:040923000C060309B2
:100800007508017509F4750A00750B01E5A0C3941C
:100810001950087508097509C4803AE5A0C39432D7
:1008200050087508077509D0802BE5A0C3944B507C
:10083000087508057509DC801CE5A0C394645008A0
:100840007508037509E8800DE5A0C39480500D7507
:1008500008017509F4E4F50AF50B8054E5A0C3948A
:100860009950087508097509C4803FE5A0C394B282
:1008700050087508077509D08030E5A0C394CB50A7
:10088000087508057509DC8021E5A0C394E45008CB
:100890007508037509E88012AFA0C3EF9401748056
:1008A0009481500C7508017509F4750A00750B01E7
:0608B0001208B602080C5C
:1008B600E50B6401450A701BF50CF50D1208F805E9
:1008C6000DE50D7002050CC39404E50C648094805C
:1008D60040EA22750C00750D041208F8E50D150D99
:1008E6007002150CD3E50D9400E50C6480948050DD
:0108F600E819
:0108F70022DE
:1008F8007423250DF5827409350CF583E493F5907E
:04090800AF09AE087D
:0B090C00EF1FAC0670011E4C70F622BD
:00000001FF
