:0300000002087D76
:0C087D00787FE4F6D8FD75810B020800BE
:040894000C06030942
:100800007508017509F4E5A0C3943250087508060F
:100810007509408033E5A0C39464500875080375DA
:1008200009208024E5A0C394965008750801750935
:10083000908015E5A0C394C850087508007509C8D4
:0D084000800675080075096412084D80B926
:10084D00E4F50AF50B7494250BF5827408350AF559
:10085D0083E493F590AF09AE08120889050BE50BFB
:0F086D007002050AC39404E50A6480948040D6A3
:01087C002259
:0B088900EF1FAC0670011E4C70F62241
:00000001FF
