:02000000802E50
:02000300216971
:1000300075A881758131D288D2D3780079007A0091
:10004000C2D3D200C2D3780079047AF7D2B3EAF5EA
:10005000A030B36B30A7150830A6110830A50D08E5
:1000600030A4090803FAD9E4313580D83128900149
:1000700091E893B40A028039B40B028034B40C02C4
:10008000802FB40D02802AB40E028007B40F0280C4
:100090000C803BD2D3780079007A0080CBD2D3D0C9
:1000A0000ED00DD00C3106C00B780079007A00809C
:1000B000B7D2D3C0E0C200780079007A0080A931BD
:1000C00028D2D3E581B43132D00B3179809AD2D3A2
:1000D000FFE9F8EAF9EFFAE875F064A4FBE975F0D6
:1000E0000AA48BF025F08AF025F0FB300006E581AC
:1000F0009401F581C00BD2000168D00ED00DD00C58
:100100003106C00B0168EC8EF0BD0A0625F0FB310C
:100110007922BD0B0695F0FB317922BD0C05A4FBBD
:1001200031792284FB3179227D037EC87FFADFFE9C
:10013000DEFADDF6229001A1D2D3C2B4740093F5A9
:0B014000903164D2B4C2B5E893F59092
:10014B003164D2B5C2B6E993F5903164D2B6C2B779
:10015B00EA93F5903164D2B7227FA4DFFE22D2D38B
:10016B0031797D0A3188DBF83179318880FCEB7588
:10017B00F00A84AAF075F00A84A9F0F8227E6431A3
:10018B0035DEFCDDF8220102030A0405060B070825
:10019B00090C0E000F0D039F250D9949411B0119E9
:00000001FF
